{
  "abi": [
    {
      "inputs": [],
      "stateMutability": "nonpayable",
      "type": "constructor"
    },
    {
      "inputs": [],
      "name": "owner",
      "outputs": [
        {
          "internalType": "address",
          "name": "",
          "type": "address"
        }
      ],
      "stateMutability": "view",
      "type": "function"
    },
    {
      "inputs": [
        {
          "internalType": "address",
          "name": "king",
          "type": "address"
        }
      ],
      "name": "snatchCrown",
      "outputs": [],
      "stateMutability": "payable",
      "type": "function"
    },
    {
      "stateMutability": "payable",
      "type": "receive"
    }
  ],
  "bytecode": {
    "object": "0x60a060405234801561001057600080fd5b503360805260805161020f610035600039600081816063015260a3015261020f6000f3fe60806040526004361061002d5760003560e01c80635e64960e1461003c5780638da5cb5b1461005157600080fd5b3661003757600080fd5b600080fd5b61004f61004a3660046101a9565b6100a1565b005b34801561005d57600080fd5b506100857f000000000000000000000000000000000000000000000000000000000000000081565b6040516001600160a01b03909116815260200160405180910390f35b7f00000000000000000000000000000000000000000000000000000000000000006001600160a01b0316331461010e5760405162461bcd60e51b815260206004820152600d60248201526c22a9292fa727aa2fa7aba722a960991b60448201526064015b60405180910390fd5b6000816001600160a01b03163460405160006040518083038185875af1925050503d806000811461015b576040519150601f19603f3d011682016040523d82523d6000602084013e610160565b606091505b50509050806101a55760405162461bcd60e51b815260206004820152601160248201527022a9292fa320a4a62faa2920a729a322a960791b6044820152606401610105565b5050565b6000602082840312156101bb57600080fd5b81356001600160a01b03811681146101d257600080fd5b939250505056fea26469706673582212204a691f3913e48353c1a59569f027dcec7939670b0a2b0119f60fa551d9b3901364736f6c634300080a0033",
    "linkReferences": {}
  },
  "methodIdentifiers": {
    "owner()": "8da5cb5b",
    "snatchCrown(address)": "5e64960e"
  },
  "id": 0
}