{
  "abi": [
    {
      "inputs": [],
      "stateMutability": "nonpayable",
      "type": "constructor"
    },
    {
      "inputs": [],
      "name": "owner",
      "outputs": [
        {
          "internalType": "address",
          "name": "",
          "type": "address"
        }
      ],
      "stateMutability": "view",
      "type": "function"
    },
    {
      "inputs": [
        {
          "internalType": "address",
          "name": "king",
          "type": "address"
        }
      ],
      "name": "snatchCrown",
      "outputs": [],
      "stateMutability": "payable",
      "type": "function"
    },
    {
      "stateMutability": "payable",
      "type": "receive"
    }
  ],
  "bytecode": {
    "object": "0x60a060405234801561001057600080fd5b5033608052608051610212610035600039600081816063015260a301526102126000f3fe60806040526004361061002d5760003560e01c80635e64960e1461003c5780638da5cb5b1461005157600080fd5b3661003757600080fd5b600080fd5b61004f61004a3660046101ac565b6100a1565b005b34801561005d57600080fd5b506100857f000000000000000000000000000000000000000000000000000000000000000081565b6040516001600160a01b03909116815260200160405180910390f35b7f00000000000000000000000000000000000000000000000000000000000000006001600160a01b0316331461010e5760405162461bcd60e51b815260206004820152600d60248201526c22a9292fa727aa2fa7aba722a960991b60448201526064015b60405180910390fd5b600080826001600160a01b03163460405160006040518083038185875af1925050503d806000811461015c576040519150601f19603f3d011682016040523d82523d6000602084013e610161565b606091505b5091509150816101a75760405162461bcd60e51b815260206004820152601160248201527022a9292fa320a4a62faa2920a729a322a960791b6044820152606401610105565b505050565b6000602082840312156101be57600080fd5b81356001600160a01b03811681146101d557600080fd5b939250505056fea26469706673582212204c06a2139c291f1dd10fa10f0eca21e29aad03322f0766fb5edcdf83ad0d94e864736f6c634300080a0033",
    "linkReferences": {}
  },
  "methodIdentifiers": {
    "owner()": "8da5cb5b",
    "snatchCrown(address)": "5e64960e"
  },
  "id": 4
}