{
  "abi": [
    {
      "inputs": [
        {
          "internalType": "address",
          "name": "_telephone",
          "type": "address"
        }
      ],
      "stateMutability": "nonpayable",
      "type": "constructor"
    },
    {
      "inputs": [],
      "name": "owner",
      "outputs": [
        {
          "internalType": "address",
          "name": "",
          "type": "address"
        }
      ],
      "stateMutability": "view",
      "type": "function"
    },
    {
      "inputs": [],
      "name": "telephone",
      "outputs": [
        {
          "internalType": "contract ITelephone",
          "name": "",
          "type": "address"
        }
      ],
      "stateMutability": "view",
      "type": "function"
    },
    {
      "inputs": [],
      "name": "wreckIt",
      "outputs": [],
      "stateMutability": "nonpayable",
      "type": "function"
    }
  ],
  "bytecode": {
    "object": "0x60c060405234801561001057600080fd5b5060405161027b38038061027b83398101604081905261002f91610044565b336080526001600160a01b031660a052610074565b60006020828403121561005657600080fd5b81516001600160a01b038116811461006d57600080fd5b9392505050565b60805160a0516101d76100a4600039600081816098015261013b0152600081816055015260c501526101d76000f3fe608060405234801561001057600080fd5b50600436106100415760003560e01c806304584af1146100465780638da5cb5b1461005057806393acaa5914610093575b600080fd5b61004e6100ba565b005b6100777f000000000000000000000000000000000000000000000000000000000000000081565b6040516001600160a01b03909116815260200160405180910390f35b6100777f000000000000000000000000000000000000000000000000000000000000000081565b336001600160a01b037f000000000000000000000000000000000000000000000000000000000000000016146101265760405162461bcd60e51b815260206004820152600d60248201526c22a9292fa727aa2fa7aba722a960991b604482015260640160405180910390fd5b60405163a6f9dae160e01b81523360048201527f00000000000000000000000000000000000000000000000000000000000000006001600160a01b03169063a6f9dae190602401600060405180830381600087803b15801561018757600080fd5b505af115801561019b573d6000803e3d6000fd5b5050505056fea2646970667358221220947356a7d4c4bacfaa7a885d29485de5d0b7542980890134c0be0331dee9094364736f6c634300080a0033",
    "linkReferences": {}
  },
  "methodIdentifiers": {
    "owner()": "8da5cb5b",
    "telephone()": "93acaa59",
    "wreckIt()": "04584af1"
  },
  "id": 7
}