{
  "abi": [
    {
      "inputs": [
        {
          "internalType": "address",
          "name": "_elevator",
          "type": "address"
        }
      ],
      "stateMutability": "nonpayable",
      "type": "constructor"
    },
    {
      "inputs": [],
      "name": "elevator",
      "outputs": [
        {
          "internalType": "contract IElevator",
          "name": "",
          "type": "address"
        }
      ],
      "stateMutability": "view",
      "type": "function"
    },
    {
      "inputs": [
        {
          "internalType": "uint256",
          "name": "floor",
          "type": "uint256"
        }
      ],
      "name": "isLastFloor",
      "outputs": [
        {
          "internalType": "bool",
          "name": "",
          "type": "bool"
        }
      ],
      "stateMutability": "nonpayable",
      "type": "function"
    },
    {
      "inputs": [],
      "name": "owner",
      "outputs": [
        {
          "internalType": "address",
          "name": "",
          "type": "address"
        }
      ],
      "stateMutability": "view",
      "type": "function"
    },
    {
      "inputs": [],
      "name": "wreckIt",
      "outputs": [],
      "stateMutability": "nonpayable",
      "type": "function"
    }
  ],
  "bytecode": {
    "object": "0x60c060405234801561001057600080fd5b5060405161036538038061036583398101604081905261002f91610044565b336080526001600160a01b031660a052610074565b60006020828403121561005657600080fd5b81516001600160a01b038116811461006d57600080fd5b9392505050565b60805160a0516102ba6100ab6000396000818160c70152818161016d01526101e00152600081816088015260f401526102ba6000f3fe608060405234801561001057600080fd5b506004361061004c5760003560e01c806304584af1146100515780635f9a4bca1461005b5780638da5cb5b14610083578063b0cb4ff0146100c2575b600080fd5b6100596100e9565b005b61006e61006936600461026b565b6101d3565b60405190151581526020015b60405180910390f35b6100aa7f000000000000000000000000000000000000000000000000000000000000000081565b6040516001600160a01b03909116815260200161007a565b6100aa7f000000000000000000000000000000000000000000000000000000000000000081565b336001600160a01b037f000000000000000000000000000000000000000000000000000000000000000016146101565760405162461bcd60e51b815260206004820152600d60248201526c22a9292fa727aa2fa7aba722a960991b60448201526064015b60405180910390fd5b604051633b669c4d60e21b81526103e860048201527f00000000000000000000000000000000000000000000000000000000000000006001600160a01b03169063ed9a713490602401600060405180830381600087803b1580156101b957600080fd5b505af11580156101cd573d6000803e3d6000fd5b50505050565b6000336001600160a01b037f000000000000000000000000000000000000000000000000000000000000000016146102405760405162461bcd60e51b815260206004820152601060248201526f22a9292fa727aa2fa2a622ab20aa27a960811b604482015260640161014d565b60005460ff1615156001141561025857506001919050565b506000805460ff19166001178155919050565b60006020828403121561027d57600080fd5b503591905056fea264697066735822122022288d48fcb8cbe56c3270675233750a110cbd1dd10d188bf2a911353148c02264736f6c634300080a0033",
    "linkReferences": {}
  },
  "methodIdentifiers": {
    "elevator()": "b0cb4ff0",
    "isLastFloor(uint256)": "5f9a4bca",
    "owner()": "8da5cb5b",
    "wreckIt()": "04584af1"
  },
  "id": 0
}