{
  "abi": [
    {
      "inputs": [
        {
          "internalType": "address",
          "name": "_coinFlip",
          "type": "address"
        }
      ],
      "stateMutability": "nonpayable",
      "type": "constructor"
    },
    {
      "inputs": [],
      "name": "cCoinFlip",
      "outputs": [
        {
          "internalType": "contract ICoinFlip",
          "name": "",
          "type": "address"
        }
      ],
      "stateMutability": "view",
      "type": "function"
    },
    {
      "inputs": [],
      "name": "owner",
      "outputs": [
        {
          "internalType": "address",
          "name": "",
          "type": "address"
        }
      ],
      "stateMutability": "view",
      "type": "function"
    },
    {
      "inputs": [],
      "name": "wreckIt",
      "outputs": [],
      "stateMutability": "nonpayable",
      "type": "function"
    }
  ],
  "bytecode": {
    "object": "0x60c0604052600160ff1b60005534801561001857600080fd5b5060405161038e38038061038e8339810160408190526100379161004c565b336080526001600160a01b031660a05261007c565b60006020828403121561005e57600080fd5b81516001600160a01b038116811461007557600080fd5b9392505050565b60805160a0516102e26100ac60003960008181605501526101820152600081816098015260c501526102e26000f3fe608060405234801561001057600080fd5b50600436106100415760003560e01c806304584af11461004657806346a454bb146100505780638da5cb5b14610093575b600080fd5b61004e6100ba565b005b6100777f000000000000000000000000000000000000000000000000000000000000000081565b6040516001600160a01b03909116815260200160405180910390f35b6100777f000000000000000000000000000000000000000000000000000000000000000081565b336001600160a01b037f000000000000000000000000000000000000000000000000000000000000000016146101275760405162461bcd60e51b815260206004820152600d60248201526c22a9292fa727aa2fa7aba722a960991b60448201526064015b60405180910390fd5b600061013460014361023c565b6000805491409250906101479083610261565b905060008160011461015a57600061015d565b60015b604051631d263f6760e01b815281151560048201529091506000906001600160a01b037f00000000000000000000000000000000000000000000000000000000000000001690631d263f67906024016020604051808303816000875af11580156101cb573d6000803e3d6000fd5b505050506040513d601f19601f820116820180604052508101906101ef9190610283565b90506001811515146102365760405162461bcd60e51b815260206004820152601060248201526f11549497d5d25397d156141150d5115160821b604482015260640161011e565b50505050565b60008282101561025c57634e487b7160e01b600052601160045260246000fd5b500390565b60008261027e57634e487b7160e01b600052601260045260246000fd5b500490565b60006020828403121561029557600080fd5b815180151581146102a557600080fd5b939250505056fea2646970667358221220ba3112da71a256fd7087bbc8d8ddfa41b8c1e5c1ac5c85d567106a482e480aa864736f6c634300080a0033",
    "linkReferences": {}
  },
  "methodIdentifiers": {
    "cCoinFlip()": "46a454bb",
    "owner()": "8da5cb5b",
    "wreckIt()": "04584af1"
  },
  "id": 1
}