{
  "abi": [
    {
      "inputs": [
        {
          "internalType": "address",
          "name": "_gatekeeper",
          "type": "address"
        }
      ],
      "stateMutability": "nonpayable",
      "type": "constructor"
    },
    {
      "inputs": [],
      "name": "gatekeeper",
      "outputs": [
        {
          "internalType": "contract IGatekeeperOne",
          "name": "",
          "type": "address"
        }
      ],
      "stateMutability": "view",
      "type": "function"
    },
    {
      "inputs": [],
      "name": "owner",
      "outputs": [
        {
          "internalType": "address",
          "name": "",
          "type": "address"
        }
      ],
      "stateMutability": "view",
      "type": "function"
    },
    {
      "inputs": [
        {
          "internalType": "bytes8",
          "name": "key",
          "type": "bytes8"
        }
      ],
      "name": "wrectIt",
      "outputs": [],
      "stateMutability": "nonpayable",
      "type": "function"
    }
  ],
  "bytecode": {
    "object": "0x60c060405234801561001057600080fd5b5060405161034638038061034683398101604081905261002f91610044565b336080526001600160a01b031660a052610074565b60006020828403121561005657600080fd5b81516001600160a01b038116811461006d57600080fd5b9392505050565b60805160a0516102a26100a46000396000818160a301526101360152600081816060015260d001526102a26000f3fe608060405234801561001057600080fd5b50600436106100415760003560e01c80630169cda2146100465780638da5cb5b1461005b578063a59c9c271461009e575b600080fd5b610059610054366004610219565b6100c5565b005b6100827f000000000000000000000000000000000000000000000000000000000000000081565b6040516001600160a01b03909116815260200160405180910390f35b6100827f000000000000000000000000000000000000000000000000000000000000000081565b336001600160a01b037f000000000000000000000000000000000000000000000000000000000000000016146101325760405162461bcd60e51b815260206004820152600d60248201526c22a9292fa727aa2fa7aba722a960991b60448201526064015b60405180910390fd5b60007f00000000000000000000000000000000000000000000000000000000000000006001600160a01b0316633370204e5a6040516001600160e01b031960e084901b1681526001600160c01b03198616600482015260240160206040518083038160008887f11580156101aa573d6000803e3d6000fd5b50505050506040513d601f19601f820116820180604052508101906101cf919061024a565b90506001811515146102155760405162461bcd60e51b815260206004820152600f60248201526e11549497d393d517d1539511549151608a1b6044820152606401610129565b5050565b60006020828403121561022b57600080fd5b81356001600160c01b03198116811461024357600080fd5b9392505050565b60006020828403121561025c57600080fd5b8151801515811461024357600080fdfea2646970667358221220face20aaf03b0c23ea28f9f1d6b482090822b40016e95180268607a7bb85b1ed64736f6c634300080a0033",
    "linkReferences": {}
  },
  "methodIdentifiers": {
    "gatekeeper()": "a59c9c27",
    "owner()": "8da5cb5b",
    "wrectIt(bytes8)": "0169cda2"
  },
  "id": 1
}