{
  "abi": [
    {
      "inputs": [
        {
          "internalType": "address",
          "name": "_gatekeeper",
          "type": "address"
        }
      ],
      "stateMutability": "nonpayable",
      "type": "constructor"
    },
    {
      "inputs": [],
      "name": "gatekeeper",
      "outputs": [
        {
          "internalType": "contract IGatekeeperOne",
          "name": "",
          "type": "address"
        }
      ],
      "stateMutability": "view",
      "type": "function"
    },
    {
      "inputs": [],
      "name": "owner",
      "outputs": [
        {
          "internalType": "address",
          "name": "",
          "type": "address"
        }
      ],
      "stateMutability": "view",
      "type": "function"
    },
    {
      "inputs": [
        {
          "internalType": "bytes8",
          "name": "key",
          "type": "bytes8"
        },
        {
          "internalType": "uint256",
          "name": "_gas",
          "type": "uint256"
        }
      ],
      "name": "wrectIt",
      "outputs": [],
      "stateMutability": "nonpayable",
      "type": "function"
    }
  ],
  "bytecode": {
    "object": "0x60c060405234801561001057600080fd5b506040516103f73803806103f783398101604081905261002f91610044565b336080526001600160a01b031660a052610074565b60006020828403121561005657600080fd5b81516001600160a01b038116811461006d57600080fd5b9392505050565b60805160a05161034c6100ab6000396000818160a301528181610162015261023f0152600081816060015260d0015261034c6000f3fe608060405234801561001057600080fd5b50600436106100415760003560e01c806341a93e5a146100465780638da5cb5b1461005b578063a59c9c271461009e575b600080fd5b6100596100543660046102b4565b6100c5565b005b6100827f000000000000000000000000000000000000000000000000000000000000000081565b6040516001600160a01b03909116815260200160405180910390f35b6100827f000000000000000000000000000000000000000000000000000000000000000081565b336001600160a01b037f000000000000000000000000000000000000000000000000000000000000000016146101325760405162461bcd60e51b815260206004820152600d60248201526c22a9292fa727aa2fa7aba722a960991b60448201526064015b60405180910390fd5b801561021d576040516319b8102760e11b81526001600160c01b0319831660048201526000906001600160a01b037f00000000000000000000000000000000000000000000000000000000000000001690633370204e90849060240160206040518083038160008887f11580156101ad573d6000803e3d6000fd5b50505050506040513d601f19601f820116820180604052508101906101d291906102ed565b90506001811515146102185760405162461bcd60e51b815260206004820152600f60248201526e11549497d393d517d1539511549151608a1b6044820152606401610129565b505050565b6040516319b8102760e11b81526001600160c01b0319831660048201526000907f00000000000000000000000000000000000000000000000000000000000000006001600160a01b031690633370204e906024016020604051808303816000875af1158015610290573d6000803e3d6000fd5b505050506040513d601f19601f820116820180604052508101906101d291906102ed565b600080604083850312156102c757600080fd5b82356001600160c01b0319811681146102df57600080fd5b946020939093013593505050565b6000602082840312156102ff57600080fd5b8151801515811461030f57600080fd5b939250505056fea2646970667358221220dab08b6580d87956e5f6db369f13099e05a9ce2ca6946761c601ad7b92cc695664736f6c634300080a0033",
    "linkReferences": {}
  },
  "methodIdentifiers": {
    "gatekeeper()": "a59c9c27",
    "owner()": "8da5cb5b",
    "wrectIt(bytes8,uint256)": "41a93e5a"
  },
  "id": 8
}