{
  "abi": [
    {
      "inputs": [],
      "stateMutability": "nonpayable",
      "type": "constructor"
    },
    {
      "stateMutability": "payable",
      "type": "fallback"
    },
    {
      "inputs": [
        {
          "internalType": "address",
          "name": "_to",
          "type": "address"
        }
      ],
      "name": "destroy",
      "outputs": [],
      "stateMutability": "nonpayable",
      "type": "function"
    },
    {
      "inputs": [],
      "name": "owner",
      "outputs": [
        {
          "internalType": "address",
          "name": "",
          "type": "address"
        }
      ],
      "stateMutability": "view",
      "type": "function"
    },
    {
      "stateMutability": "payable",
      "type": "receive"
    }
  ],
  "bytecode": {
    "object": "0x60a060405234801561001057600080fd5b5033608052608051610180610035600039600081816064015260ad01526101806000f3fe6080604052600436106100295760003560e01c8062f55d9d146100325780638da5cb5b1461005257005b3661003057005b005b34801561003e57600080fd5b5061003061004d36600461011a565b6100a2565b34801561005e57600080fd5b506100867f000000000000000000000000000000000000000000000000000000000000000081565b6040516001600160a01b03909116815260200160405180910390f35b336001600160a01b037f0000000000000000000000000000000000000000000000000000000000000000161461010e5760405162461bcd60e51b815260206004820152600d60248201526c22a9292fa727aa2fa7aba722a960991b604482015260640160405180910390fd5b806001600160a01b0316ff5b60006020828403121561012c57600080fd5b81356001600160a01b038116811461014357600080fd5b939250505056fea2646970667358221220d5cb7bcfc166dd73589b7c95868d3964f1128023db406576280654498ce7063b64736f6c634300080a0033",
    "linkReferences": {}
  },
  "methodIdentifiers": {
    "destroy(address)": "00f55d9d",
    "owner()": "8da5cb5b"
  },
  "id": 3
}